{
  "_format": "hh-sol-artifact-1",
  "contractName": "Fund",
  "sourceName": "contracts/Fund.sol",
  "abi": [
    {
      "inputs": [
        {
          "internalType": "address",
          "name": "_priceFeed",
          "type": "address"
        }
      ],
      "stateMutability": "nonpayable",
      "type": "constructor"
    },
    {
      "inputs": [],
      "name": "Fund__NotOwner",
      "type": "error"
    },
    {
      "inputs": [],
      "name": "MINIMUM_USD",
      "outputs": [
        {
          "internalType": "uint256",
          "name": "",
          "type": "uint256"
        }
      ],
      "stateMutability": "view",
      "type": "function"
    },
    {
      "inputs": [],
      "name": "fund",
      "outputs": [],
      "stateMutability": "payable",
      "type": "function"
    },
    {
      "inputs": [],
      "name": "getAddressPriceFeed",
      "outputs": [
        {
          "internalType": "contract AggregatorV3Interface",
          "name": "",
          "type": "address"
        }
      ],
      "stateMutability": "view",
      "type": "function"
    },
    {
      "inputs": [
        {
          "internalType": "address",
          "name": "funder",
          "type": "address"
        }
      ],
      "name": "getAddressToAmountFunded",
      "outputs": [
        {
          "internalType": "uint256",
          "name": "",
          "type": "uint256"
        }
      ],
      "stateMutability": "view",
      "type": "function"
    },
    {
      "inputs": [
        {
          "internalType": "uint256",
          "name": "index",
          "type": "uint256"
        }
      ],
      "name": "getFunder",
      "outputs": [
        {
          "internalType": "address",
          "name": "",
          "type": "address"
        }
      ],
      "stateMutability": "view",
      "type": "function"
    },
    {
      "inputs": [],
      "name": "getOwner",
      "outputs": [
        {
          "internalType": "address",
          "name": "",
          "type": "address"
        }
      ],
      "stateMutability": "view",
      "type": "function"
    },
    {
      "inputs": [],
      "name": "getVersion",
      "outputs": [
        {
          "internalType": "uint256",
          "name": "",
          "type": "uint256"
        }
      ],
      "stateMutability": "view",
      "type": "function"
    },
    {
      "inputs": [],
      "name": "withdraw",
      "outputs": [],
      "stateMutability": "nonpayable",
      "type": "function"
    }
  ],
  "bytecode": "0x60a06040523480156200001157600080fd5b50604051620010d9380380620010d9833981810160405281019062000037919062000120565b3373ffffffffffffffffffffffffffffffffffffffff1660808173ffffffffffffffffffffffffffffffffffffffff1660601b8152505080600260006101000a81548173ffffffffffffffffffffffffffffffffffffffff021916908373ffffffffffffffffffffffffffffffffffffffff1602179055505062000152565b600080fd5b600073ffffffffffffffffffffffffffffffffffffffff82169050919050565b6000620000e882620000bb565b9050919050565b620000fa81620000db565b81146200010657600080fd5b50565b6000815190506200011a81620000ef565b92915050565b600060208284031215620001395762000138620000b6565b5b6000620001498482850162000109565b91505092915050565b60805160601c610f5a6200017f600039600081816102b90152818161047401526105460152610f5a6000f3fe60806040526004361061007b5760003560e01c80636b69a5921161004e5780636b69a5921461012a578063893d20e814610155578063b60d428814610180578063d7b4750c1461018a5761007b565b80630343fb25146100805780630d8e6e2c146100bd5780633ccfd60b146100e857806365ed89a2146100ff575b600080fd5b34801561008c57600080fd5b506100a760048036038101906100a291906108d1565b6101c7565b6040516100b49190610917565b60405180910390f35b3480156100c957600080fd5b506100d2610210565b6040516100df9190610917565b60405180910390f35b3480156100f457600080fd5b506100fd6102b7565b005b34801561010b57600080fd5b5061011461050b565b6040516101219190610991565b60405180910390f35b34801561013657600080fd5b5061013f610535565b60405161014c9190610917565b60405180910390f35b34801561016157600080fd5b5061016a610542565b60405161017791906109bb565b60405180910390f35b61018861056a565b005b34801561019657600080fd5b506101b160048036038101906101ac9190610a02565b6106a4565b6040516101be91906109bb565b60405180910390f35b6000600160008373ffffffffffffffffffffffffffffffffffffffff1673ffffffffffffffffffffffffffffffffffffffff168152602001908152602001600020549050919050565b6000600260009054906101000a900473ffffffffffffffffffffffffffffffffffffffff1673ffffffffffffffffffffffffffffffffffffffff166354fd4d506040518163ffffffff1660e01b815260040160206040518083038186803b15801561027a57600080fd5b505afa15801561028e573d6000803e3d6000fd5b505050506040513d601f19601f820116820180604052508101906102b29190610a44565b905090565b7f000000000000000000000000000000000000000000000000000000000000000073ffffffffffffffffffffffffffffffffffffffff163373ffffffffffffffffffffffffffffffffffffffff1614610509576040517fa9b8b84d00000000000000000000000000000000000000000000000000000000815260040160405180910390fd5b8160009054906101000a900473ffffffffffffffffffffffffffffffffffffffff1673ffffffffffffffffffffffffffffffffffffffff168152602001906001019080831161033c575050505050905060005b8151811161040f5760008282815181106103ac576103ab610a71565b5b602002602001015190506000600160008373ffffffffffffffffffffffffffffffffffffffff1673ffffffffffffffffffffffffffffffffffffffff1681526020019081526020016000208190555050808061040790610acf565b91505061038f565b50600067ffffffffffffffff81111561042b5761042a610b18565b5b6040519080825280602002602001820160405280156104595781602001602082028036833780820191505090505b506000908051906020019061046f9291906107c7565b5060007f000000000000000000000000000000000000000000000000000000000000000073ffffffffffffffffffffffffffffffffffffffff16476040516104b690610b78565b60006040518083038185875af1925050503d80600081146104f3576040519150601f19603f3d011682016040523d82523d6000602084013e6104f8565b606091505b505090508061050657600080fd5b50505b565b6000600260009054906101000a900473ffffffffffffffffffffffffffffffffffffffff16905090565b6802b5e3af16b188000081565b60007f0000000000000000000000000000000000000000000000000000000000000000905090565b6802b5e3af16b18800006105a9600260009054906101000a900473ffffffffffffffffffffffffffffffffffffffff16346106eb90919063ffffffff16565b116105e9576040517f08c379a00000000000000000000000000000000000000000000000000000000081526004016105e090610bea565b60405180910390fd5b6000339080600181540180825580915050600190039060005260206000200160009091909190916101000a81548173ffffffffffffffffffffffffffffffffffffffff021916908373ffffffffffffffffffffffffffffffffffffffff16021790555034600160003373ffffffffffffffffffffffffffffffffffffffff1673ffffffffffffffffffffffffffffffffffffffff168152602001908152602001600020600082825461069b9190610c0a565b92505081905550565b60008082815481106106b9576106b8610a71565b5b9060005260206000200160009054906101000a900473ffffffffffffffffffffffffffffffffffffffff169050919050565b6000806106f783610727565b90506000670de0b6b3a764000085836107109190610c60565b61071a9190610ce9565b9050809250505092915050565b6000808273ffffffffffffffffffffffffffffffffffffffff1663feaf968c6040518163ffffffff1660e01b815260040160a06040518083038186803b15801561077057600080fd5b505afa158015610784573d6000803e3d6000fd5b505050506040513d601f19601f820116820180604052508101906107a89190610d92565b5050509150506402540be400816107bf9190610e0d565b915050919050565b828054828255906000526020600020908101928215610840579160200282015b8281111561083f5782518260006101000a81548173ffffffffffffffffffffffffffffffffffffffff021916908373ffffffffffffffffffffffffffffffffffffffff160217905550916020019190600101906107e7565b5b50905061084d9190610851565b5090565b5b8082111561086a576000816000905550600101610852565b5090565b600080fd5b600073ffffffffffffffffffffffffffffffffffffffff82169050919050565b600061089e82610873565b9050919050565b6108ae81610893565b81146108b957600080fd5b50565b6000813590506108cb816108a5565b92915050565b6000602082840312156108e7576108e661086e565b5b60006108f5848285016108bc565b91505092915050565b6000819050919050565b610911816108fe565b82525050565b600060208201905061092c6000830184610908565b92915050565b6000819050919050565b600061095761095261094d84610873565b610932565b610873565b9050919050565b60006109698261093c565b9050919050565b600061097b8261095e565b9050919050565b61098b81610970565b82525050565b60006020820190506109a66000830184610982565b92915050565b6109b581610893565b82525050565b60006020820190506109d060008301846109ac565b92915050565b6109df816108fe565b81146109ea57600080fd5b50565b6000813590506109fc816109d6565b92915050565b600060208284031215610a1857610a1761086e565b5b6000610a26848285016109ed565b91505092915050565b600081519050610a3e816109d6565b92915050565b600060208284031215610a5a57610a5961086e565b5b6000610a6884828501610a2f565b91505092915050565b7f4e487b7100000000000000000000000000000000000000000000000000000000600052603260045260246000fd5b7f4e487b7100000000000000000000000000000000000000000000000000000000600052601160045260246000fd5b6000610ada826108fe565b91507fffffffffffffffffffffffffffffffffffffffffffffffffffffffffffffffff821415610b0d57610b0c610aa0565b5b600182019050919050565b7f4e487b7100000000000000000000000000000000000000000000000000000000600052604160045260246000fd5b600081905092915050565b50565b6000610b62600083610b47565b9150610b6d82610b52565b600082019050919050565b6000610b8382610b55565b9150819050919050565b600082825260208201905092915050565b7f596f75206e65656420746f205370656e64206d6f726520455448210000000000600082015250565b6000610bd4601b83610b8d565b9150610bdf82610b9e565b602082019050919050565b60006020820190508181036000830152610c0381610bc7565b9050919050565b6000610c15826108fe565b9150610c20836108fe565b9250827fffffffffffffffffffffffffffffffffffffffffffffffffffffffffffffffff03821115610c5557610c54610aa0565b5b828201905092915050565b6000610c6b826108fe565b9150610c76836108fe565b9250817fffffffffffffffffffffffffffffffffffffffffffffffffffffffffffffffff0483118215151615610caf57610cae610aa0565b5b828202905092915050565b7f4e487b7100000000000000000000000000000000000000000000000000000000600052601260045260246000fd5b6000610cf4826108fe565b9150610cff836108fe565b925082610d0f57610d0e610cba565b5b828204905092915050565b600069ffffffffffffffffffff82169050919050565b610d3981610d1a565b8114610d4457600080fd5b50565b600081519050610d5681610d30565b92915050565b6000819050919050565b610d6f81610d5c565b8114610d7a57600080fd5b50565b600081519050610d8c81610d66565b92915050565b600080600080600060a08688031215610dae57610dad61086e565b5b6000610dbc88828901610d47565b9550506020610dcd88828901610d7d565b9450506040610dde88828901610a2f565b9350506060610def88828901610a2f565b9250506080610e0088828901610d47565b9150509295509295909350565b6000610e1882610d5c565b9150610e2383610d5c565b9250827f7fffffffffffffffffffffffffffffffffffffffffffffffffffffffffffffff0482116000841360008413161615610e6257610e61610aa0565b5b817f80000000000000000000000000000000000000000000000000000000000000000583126000841260008413161615610e9f57610e9e610aa0565b5b827f80000000000000000000000000000000000000000000000000000000000000000582126000841360008412161615610edc57610edb610aa0565b5b827f7fffffffffffffffffffffffffffffffffffffffffffffffffffffffffffffff0582126000841260008412161615610f1957610f18610aa0565b5b82820290509291505056fea26469706673582212201ebd045e1c32d398c043cee2c89e467040ef10810d6b3d682fd0936da5ef3e4464736f6c63430008080033",
  "linkReferences": {},
  "deployedLinkReferences": {}
}